:020000042000DA
:10000000B7110020938181ED371200801302028026
:10001000B742008013810200370500201305855385
:100020007310553073102034EF00805B37040020CC
:10003000130444700325040013044400E700050082
:100040006FF05FFFEF00C01C6F0040006F0000000A
:10005000130101FF2326A1002324B1000325810001
:100060002322A10093050000630CB5026F0040003D
:1000700003254100930510006300B5066F004000A2
:1000800003254100930520006304B5086F0040007C
:1000900003254100930530006308B50A6F00000E88
:1000A0008325C10013051000B316B500B725011054
:1000B00003A645003366D60023A2C5000326C1006F
:1000C0003315C5001346F5FF03A585033375C50039
:1000D00023ACA5026F00800A8325C1001305100020
:1000E000B316B500B725011003A685003366D60008
:1000F00023A4C5000326C1003315C5001346F5FF30
:1001000003A585033375C50023ACA5026F00000766
:100110008325C10013051000B316B500B7250110E3
:1001200003A685033366D60023ACC5020326C100AF
:100130003315C5001346F5FF03A5C5033375C50088
:1001400023AEA5026F0080038325C10013051000B4
:10015000B316B500B725011003A685033366D60094
:1001600023ACC5020326C1003316C50003A5C50391
:100170003365C50023AEA5026F00400013010101E5
:040180006780000094
:10018400130101FF2326A1002324B10003258100CC
:10019400930500006304B5026F0040008325C1008D
:1001A400130510003316B500B725011003A5C500CB
:1001B4003365C50023A6A5006F0080028325C10016
:1001C400130510003315B5001346F5FFB7250110CC
:1001D40003A5C5003375C50023A6A5006F00400024
:0801E400130101016780000016
:1001EC00130101FF2326A10037250110032505006B
:1001FC008325C1003355B50013751500130101019A
:04020C006780000007
:10021000130101F6232E110813050000232CA10859
:10022000232AA1082328A1082326A108EF000028DB
:100230003725000013050558EF0000193705002089
:100240001305F568EF00803D6F0040001305300195
:10025000EFF0DFF92328A108832501091305200108
:10026000EFF05FF21305F004EF00C01F0325010952
:1002700093051000631AB50A6F0040000325C108FA
:10028000930500006312B50A6F0040002326A10009
:100290008325428003A5050083A545002322B108DC
:1002A0002320A1083705002013052568EF0000373B
:1002B0000325C1008325428003A5450003A6050050
:1002C0009305460633B6C5003305C5002328B100A3
:1002D000232AA1006F004000032542800326050069
:1002E0000325450083260101832541013337B500ED
:1002F000134717002322E1003336D60013461600B9
:100300002324C1006306B500032541002324A10076
:1003100003258100930500006316B5006F004000BF
:100320006FF09FFB6F00400003250109930500005B
:100330006316B5066F0040000325C1089305100041
:10034000631EB5046F0040008325428003A50500AD
:1003500083A54500232EB106232CA1060325C10742
:10036000832581070327410803260108B3B6C5008A
:100370003305E5403305D540B385C5402328B10694
:10038000232AA106832641070326010737050020FB
:100390001305F569EF0080286F004000032501096F
:1003A0002326A1086F0040009305000013051000EC
:1003B000E31EB5E86F004000032581098320C109D1
:0803C0001301010A678000002F
:1003C800130101FF232611002324A10083258100A6
:1003D80037852601130505EAEF00800F1305F5FFA1
:1003E8002322A10083254100370500201305456716
:1003F800EF00402213050001930520002320B100DF
:10040800EFF09FC48325010013051001EFF0DFC34F
:1004180003564100B735011003A58501B706FFFF54
:100428003375D5003365C50023ACA50003A5850049
:100438001365150023A4A50003A5850013652500F1
:1004480023A4A50003A5C5001365150023A6A500D0
:0C0458008320C100130101016780000037
:10046400130101FFA307A1006F00400037350110FD
:10047400032505001355F501930500006306B50037
:100484006F0040006FF09FFE0346F100B735011086
:1004940003A50500137505F03365C50023A0A50069
:0804A400130101016780000053
:1004AC00130101FF232611001305300193050000F1
:1004BC00EFF05FB91305200193051000EFF09FB822
:0C04CC008320C1001301010167800000C3
:1004D800638005041386050093060500135515006F
:1004E8006F00800013161600E37EC5FE130500009A
:1004F8006F008000135616001315150063E6C6003A
:10050800B386C64013051500E316B6FE67800000E3
:080518001305000067800000DC
:100520003705008013058500B70500809385854059
:08053000B385A5406F008012A5
:10053800130101FC23201100232251002324610010
:10054800232671002328A100232AB100232CC100EF
:10055800232ED1002320E1022322F10223240103C8
:10056800232611032328C103232AD103232CE103C3
:10057800232EF10373252034F3251034370300208C
:100588001303C35DE70003007310153483200100D3
:1005980083224100032381008323C1000325010135
:1005A80083254101032681018326C1010327010216
:1005B80083274102032881028328C102032E0103F5
:1005C800832E4103032F8103832FC10313010104E9
:0405D800730020305C
:0405DC006F000000AC
:0405E0006780000030
:1005E400130101FE1307050093870500130500049A
:1005F40093058100232E11002324E1002326F1001A
:10060400EF0040018320C101130101026780000053
:0406140067800000FB
:040618006FF0DFFFA1
:10061C00130101FC2322B102232AF1029305C1002C
:10062C0093074102232E11002324C1022326D10259
:10063C002328E102232C0103232E11032326F1008E
:10064C00EFF09FF98320C1011301010467800000C2
:10065C009307700063F8B7002320A28023200500C5
:08066C002322B50067800000A5
:0E06740064697669736F723A202575200A005A
:0D0682007475726E6564206F6E21200A0091
:10068F006C6F6F70207374617274696E67200A00EB
:10069F00746F74616C54696D653A202575200A007A
:1006B000032504008325440013048400638A050095
:1006C00023000500130515009385F5FFE39A05FE49
:0406D000678000003F
:1006D4000325040083254400032684001304C40076
:1006E400630E0600838605002300D500130515005C
:1006F400938515001306F6FFE31606FE67800000D7
:10070400B00600200000008004000000D406002091
:1007140004000080280700200400000020050020B9
:04072400440000206D
:04072800F8BF000214
:0400000520000000D7
:00000001FF
